{
  "contractName": "Payment",
  "abi": [
    {
      "inputs": [],
      "stateMutability": "nonpayable",
      "type": "constructor"
    },
    {
      "anonymous": false,
      "inputs": [
        {
          "indexed": true,
          "internalType": "address",
          "name": "to",
          "type": "address"
        },
        {
          "indexed": false,
          "internalType": "uint256",
          "name": "amount",
          "type": "uint256"
        }
      ],
      "name": "Paid",
      "type": "event"
    },
    {
      "inputs": [
        {
          "internalType": "address",
          "name": "",
          "type": "address"
        }
      ],
      "name": "balances",
      "outputs": [
        {
          "internalType": "uint256",
          "name": "",
          "type": "uint256"
        }
      ],
      "stateMutability": "view",
      "type": "function"
    },
    {
      "inputs": [],
      "name": "owner",
      "outputs": [
        {
          "internalType": "address",
          "name": "",
          "type": "address"
        }
      ],
      "stateMutability": "view",
      "type": "function"
    },
    {
      "inputs": [
        {
          "internalType": "address",
          "name": "to",
          "type": "address"
        },
        {
          "internalType": "uint256",
          "name": "amount",
          "type": "uint256"
        }
      ],
      "name": "pay",
      "outputs": [],
      "stateMutability": "nonpayable",
      "type": "function"
    },
    {
      "inputs": [
        {
          "internalType": "address",
          "name": "user",
          "type": "address"
        }
      ],
      "name": "getBalance",
      "outputs": [
        {
          "internalType": "uint256",
          "name": "",
          "type": "uint256"
        }
      ],
      "stateMutability": "view",
      "type": "function"
    }
  ],
  "bytecode": "0x608060405234801561000f575f80fd5b50335f806101000a81548173ffffffffffffffffffffffffffffffffffffffff021916908373ffffffffffffffffffffffffffffffffffffffff1602179055506104a58061005c5f395ff3fe608060405234801561000f575f80fd5b506004361061004a575f3560e01c806327e235e31461004e5780638da5cb5b1461007e578063c40768761461009c578063f8b2cb4f146100b8575b5f80fd5b610068600480360381019061006391906102ab565b6100e8565b60405161007591906102ee565b60405180910390f35b6100866100fd565b6040516100939190610316565b60405180910390f35b6100b660048036038101906100b19190610359565b610120565b005b6100d260048036038101906100cd91906102ab565b610207565b6040516100df91906102ee565b60405180910390f35b6001602052805f5260405f205f915090505481565b5f8054906101000a900473ffffffffffffffffffffffffffffffffffffffff1681565b5f8111610162576040517f08c379a0000000000000000000000000000000000000000000000000000000008152600401610159906103f1565b60405180910390fd5b8060015f8473ffffffffffffffffffffffffffffffffffffffff1673ffffffffffffffffffffffffffffffffffffffff1681526020019081526020015f205f8282546101ae919061043c565b925050819055508173ffffffffffffffffffffffffffffffffffffffff167f737c69225d647e5994eab1a6c301bf6d9232beb2759ae1e27a8966b4732bc489826040516101fb91906102ee565b60405180910390a25050565b5f60015f8373ffffffffffffffffffffffffffffffffffffffff1673ffffffffffffffffffffffffffffffffffffffff1681526020019081526020015f20549050919050565b5f80fd5b5f73ffffffffffffffffffffffffffffffffffffffff82169050919050565b5f61027a82610251565b9050919050565b61028a81610270565b8114610294575f80fd5b50565b5f813590506102a581610281565b92915050565b5f602082840312156102c0576102bf61024d565b5b5f6102cd84828501610297565b91505092915050565b5f819050919050565b6102e8816102d6565b82525050565b5f6020820190506103015f8301846102df565b92915050565b61031081610270565b82525050565b5f6020820190506103295f830184610307565b92915050565b610338816102d6565b8114610342575f80fd5b50565b5f813590506103538161032f565b92915050565b5f806040838503121561036f5761036e61024d565b5b5f61037c85828601610297565b925050602061038d85828601610345565b9150509250929050565b5f82825260208201905092915050565b7f416d6f756e74206d75737420626520706f7369746976650000000000000000005f82015250565b5f6103db601783610397565b91506103e6826103a7565b602082019050919050565b5f6020820190508181035f830152610408816103cf565b9050919050565b7f4e487b71000000000000000000000000000000000000000000000000000000005f52601160045260245ffd5b5f610446826102d6565b9150610451836102d6565b92508282019050808211156104695761046861040f565b5b9291505056fea26469706673582212202195068b773ef43d9da6de116e0b0f83a9dd56550c88ea8372a973406bb6e22b64736f6c63430008150033",
  "immutableReferences": {},
  "source": "// SPDX-License-Identifier: MIT\npragma solidity ^0.8.0;\n\ncontract Payment {\n    address public owner;\n    mapping(address => uint256) public balances;\n\n    event Paid(address indexed to, uint256 amount);\n\n    constructor() {\n        owner = msg.sender;\n    }\n\n    function pay(address to, uint256 amount) external {\n        require(amount > 0, \"Amount must be positive\");\n        balances[to] += amount;\n        emit Paid(to, amount);\n    }\n\n    function getBalance(address user) external view returns (uint256) {\n        return balances[user];\n    }\n}\n",
  "sourcePath": "/home/permilink/truffle/contracts/Payment.sol",
  "compiler": {
    "name": "solc",
    "version": "0.8.21+commit.d9974bed.Emscripten.clang"
  },
  "schemaVersion": "3.4.16",
  "updatedAt": "2026-01-10T11:14:00.148Z",
  "devdoc": {
    "kind": "dev",
    "methods": {},
    "version": 1
  },
  "userdoc": {
    "kind": "user",
    "methods": {},
    "version": 1
  }
}